S0120000546578745363726F6C6C2E73726563FE
S11300000C945A000C9477000C9477000C947700AD
S11300100C9477000C9477000C9477000C94770080
S11300200C9477000C9477000C9477000C94770070
S11300300C9477000C9477000C9477000C94770060
S11300400C9477000C9477000C9477000C94770050
S11300500C9477000C9477000C9477000C94770040
S11300600C9477000C9477000C9477000C94770030
S11300700C9477000C9477000C9477000C94770020
S11300800C9477000C9477000C9477000C94770010
S11300900C9477000C9477000C9477000C94770000
S11300A00C9477000C9477000C9477000C947700F0
S11300B00C94770011241FBECFEFD8E0DEBFCDBF74
S11300C011E0A0E0B1E0E6E5F3E002C005900D9296
S11300D0A436B107D9F721E0A4E6B1E001C01D922E
S11300E0A836B207E1F70E9499010C94A9010C9477
S11300F000009BB19F70282F207F922B9BB99BB14E
S11301009E7F9BB99BB192609BB900009BB19D7F80
S11301109BB932E43A95F1F700C02BB130E1839FEB
S1130120C0011124922F9F70892B8BB98BB18260EF
S11301308BB900008BB18D7F8BB983EF91E0019770
S1130140F1F700C00000089581E00E94790083EF78
S113015091E00197F1F700C0000080E80E94790067
S11301600895FC0160E070E02CC08BB18F70907F2B
S1130170982B9BB98BB181608BB98BB182608BB9A1
S113018000008BB18D7F8BB982E48A95F1F700C0B2
S11301904BB19C9180E1989F90011124942F9F7002
S11301A0292B2BB99BB192609BB900009BB19D7F19
S11301B09BB983EF91E00197F1F700C000006F5FF6
S11301C07F4FDF01A60FB71F9C919111CECF0895E9
S11301D0EF92FF920F931F93CF93DF93E0E0F1E050
S11301E001900020E9F731979F01205031407901B7
S11301F0E90189010150110980916401909165011F
S11302000817190719F480E80E94790030E1E31A0D
S1130210F10880916401909165018E159F0564F544
S1130220909367018093660119C0FC01E050FF4F71
S1130230808190E00E94B1008FE996E821E081502E
S113024090402040E1F700C0000080916601909149
S11302506701019690936701809366012091640180
S113026030916501205F3F4F809166019091670155
S113027082179307D4F256C0909367018093660166
S113028019C0FC01E050FF4F808190E00E94B10052
S11302903FE986E891E0315080409040E1F700C0AA
S11302A00000809166019091670101969093670127
S11302B08093660180916601909167018017910790
S11302C004F3109267011092660119C0FC01E0501A
S11302D0FF4F808190E00E94B1002FE936E881E071
S11302E0215030408040E1F700C000008091660159
S11302F090916701019690936701809366018091C4
S11303006401909165019E01281B390BC90120E10C
S113031030E0281B390B8091660190916701281702
S11303203907A4F6DF91CF911F910F91FF90EF90C1
S113033008950E94A4000E94E8002FED83E994E050
S1130340215080409040E1F700C0000080E090E040
S10903500895F894FFCFAC
S113035620556E6465727374616E64696E672053AA
S113036663726F6C6C696E672074657874206F6E47
S11303762031367832204C434420446973706C61D2
S1130386792E20200000000000000000000000007C
S11303960000000000000000000000000000000053
S11303A60000000000000000000000000000000043
S10703B6000000003F
S9030000FC
